:020000040800F2
:10000000580400207D0D000895220008A50D000869
:1000100000000000000000000000000000000000E0
:100020000000000000000000000000004D0C00086F
:100030000000000000000000ED0B00083D0A000871
:10004000550D0008550D0008550D0008550D000808
:10005000550D0008550D0008550D0008550D0008F8
:10006000550D0008550D0008550D0008550D0008E8
:10007000550D0008550D0008550D0008550D0008D8
:10008000550D0008550D0008550D0008550D0008C8
:10009000550D0008550D0008550D0008550D0008B8
:1000A000550D0008550D0008550D0008550D0008A8
:0400B000550D0008E2
:1000B40002B4714649084900095C49008E4402BCF7
:1000C4007047C04603B47146490840004900095EC0
:1000D40049008E4403BC7047002243088B4274D30A
:1000E40003098B425FD3030A8B4244D3030B8B4235
:1000F40028D3030C8B420DD3FF22090212BA030C3E
:100104008B4202D31212090265D0030B8B4219D31E
:1001140000E0090AC30B8B4201D3CB03C01A52413E
:10012400830B8B4201D38B03C01A5241430B8B4286
:1001340001D34B03C01A5241030B8B4201D30B036F
:10014400C01A5241C30A8B4201D3CB02C01A524196
:10015400830A8B4201D38B02C01A5241430A8B4259
:1001640001D34B02C01A5241030A8B4201D30B0242
:10017400C01A5241CDD2C3098B4201D3CB01C01A5C
:10018400524183098B4201D38B01C01A5241430966
:100194008B4201D34B01C01A524103098B4201D354
:1001A4000B01C01A5241C3088B4201D3CB00C01AC1
:1001B400524183088B4201D38B00C01A5241430839
:1001C4008B4201D34B00C01A5241411A00D201465E
:1001D400524110467047FFE701B5002000F006F8D1
:1001E40002BDC0460029F7D076E770477047C04685
:1001F400D0400B1CD1409C46203AD3401843524275
:1002040063469340184370471C2101231B04984202
:1002140001D3000C10391B0A984201D3000A083993
:100224001B09984201D30009043902A2105C40184A
:100234007047C046040302020101010100000000EE
:1002440000000000002B11D1002A0FD1002900D199
:10025400002802D00021C943081C07B4024802A1A7
:100264004018029003BDC04685FFFFFF03B46846F3
:1002740001B5029800F006F8019B9E4602B00CBC42
:100284007047C046F0B557464E464546DE46E0B593
:1002940004000D009246994683B08B4230D82DD08D
:1002A4004946504600F0BAF829000600200000F044
:1002B400B5F8331A9846203B9B4633D45A465346E6
:1002C400934042461F00534693401E00AF423AD823
:1002D400AF4200D178E05B46A41BBD41002B00DA9D
:1002E40075E0002200230092019301235A469340B3
:1002F4000193012342469340009328E08242CFD9E0
:1003040000220023009201930C9B002B01D01C605F
:100314005D600098019903B03CBC90469946A246A2
:10032400AB46F0BD424620239B1A5246DA40414672
:1003340013004A468A40170042461F4353469340DF
:100344001E00AF42C4D90022002300920193434609
:10035400002BD9D0FB0772081A4346467B080EE0EF
:10036400AB4201D1A2420CD8A41A9D410120241908
:100374006D410021013E24184D41002E06D0AB42B0
:10038400EED9013E24196D41002EF8D1009801994F
:100394005B4600196941002B24DB2B005A46444676
:1003A400D3402A00E2401C005B461500002B2ADBE8
:1003B40026009E40330026004746BE403200801A85
:1003C4009941009001919FE7A342BCD883E742463C
:1003D400202300219B1A0022009101920122DA407D
:1003E400019286E7424620239B1A2A0046469A40F9
:1003F4002300F340444613432A00E2401C005B46BA
:100404001500002BD4DA42462F0020232600974003
:100414009B1ADE403B003343CDE7C04610B50029AC
:1004240003D1FFF7F1FE203002E0081CFFF7ECFED9
:1004340010BDC04610B50A4800F0B0FF041E0ED02F
:10044400012101F0E0FC0221200001F0DCFC032189
:10045400200001F0D8FC0421200001F0D4FC10BDE0
:10046400842B000870B504000E4800F097FF051EA9
:1004740017D0012622003100324001F0B1FC62089D
:1004840002213240280001F0ABFCA20803213240D3
:10049400280001F0A5FCE20804212800324001F004
:1004A4009FFC70BD842B0008F8B51A4801F032FE99
:1004B400FFF7C0FF09250024174AA3009F583800FE
:1004C400FFF7D0FF154E22003900300001F022FE64
:1004D40000211348013401F0C3FA082CECD1013D8A
:1004E400002DE8D1092513E00B4AA300D7583800A2
:1004F400FFF7B8FF22003900300001F00BFE0021A5
:10050400074801F0ADFA013CEED2013D002DD1D0F7
:100514000724E9E78A2B000820070020902B000815
:10052400102700000B6810B501330B60014B1B68EA
:10053400984710BD40070020F0B587B003930C9B8B
:100544000E00140002900193002B01DC012301939F
:1005540020230593039B012B01D12F3305930A23F9
:10056400009300230127214D0493049B002B01D108
:10057400A54228D829002000FFF7AEFD029B3100D8
:1005840030309847012301370493009B2900013B35
:1005940020000093FFF726FE28000C000A21FFF735
:1005A4009BFD009B0500012BDFD12000029B310045
:1005B40030309847039B032B03D1019BDF1B002F93
:1005C4000EDC07B0F0BD019B009A9342DDDB039B78
:1005D400022BDAD831000598029B98470137D4E7FB
:1005E40031002020029B9847013FE8E700CA9A3B6C
:1005F400014B18607047C0464007002007B50B0048
:10060400002102000191024801A901F01AFC07BD72
:1006140029050008F0B50725CC1D8918AC43A9436A
:10062400002580222B000F1BFF08120297426B410A
:10063400260085B01E4A01935B4213401D4A1836BA
:100644009B180460E360380024606660A7606561FD
:10065400FFF7DAFD2021019B2A00C91A091AC900F3
:10066400C908CB1C0193236180231B0203931F231E
:100674009C46029013000399A06888425341614646
:10068400CB1A02995B1A9D420CDD019B00222000CB
:100694000199FB1A01F061FD2000216901F06CFD54
:1006A40005B0F0BD7260326001350836E2E7C0463D
:1006B4000080FF7FFF7F0000EFF3108372B6002BF2
:1006C40002D162B6BFF36F8F024B034A00201A6057
:1006D4007047C0466C07002000127A0010B5074826
:1006E40000F05CFE064B074C1860200000F0E8FBAD
:1006F4002000FFF77DFF002010BDC0469A2B0008A4
:10070400080000200D07000870B50400074D0A28F2
:1007140004D1286843680D215B68984728684368BA
:10072400E1B25B689847200070BDC0460800002015
:10073400F8B504000D0001279668AC4200DBF8BD53
:100744003B00A34007494A691A40934208D1E2009A
:100754004B61B358002B03D0311D200089589847B2
:100764000134EAE700040140064B02001856012355
:100774009340054910B50C6823430B6000F076FAEA
:1007840010BDC046AC2B0008000401401F2805DC46
:100794000122824002490B6893430B607047C046B4
:1007A4000004014010B50400080003290CD80123FB
:1007B400104AFFF77DFC020A0E16A3409168994384
:1007C4009160D1689943D16010BDA34091681943E9
:1007D400F6E7A340D1681943D160916899439160C9
:1007E400F2E7A340916819439160D1680B43D36049
:1007F400EAE7C04600040140054BC0009B681B1893
:100804001868002801D106C3704710204042FBE756
:10081400A8070020034AC3009068C018002303609F
:1008240043607047A80700201FB5086802280ED04F
:10083400042817D000281FD1114A4C68516921435C
:100844005161536923400193019B04B010BD0C4ACC
:100854004868D1690143D161D36903400293029B83
:100864000020F2E7064A486891690143916193695F
:1008740003400393039BF3E723204042E5E7C0468C
:10088400001002400868022809D004280ED000286D
:1008940012D10B4A496853698B4353617047084A24
:1008A4004968D3698B43D3610020F7E7044A496858
:1008B40093698B439361F7E723204042EEE7C046F8
:1008C400001002400B68022B01D9042B04D1002034
:1008D400034B1B681360704723204042FBE7C0466C
:1008E4006C070020002330B585B00093019300F01D
:1008F40037F802A801F0B5FC0223164C22681A420C
:1009040006D1012221680A43226022681A42FCD0DF
:1009140003226368934363606368ED3293436360C7
:100924000C23626815001D401A42FAD123680A4A52
:1009340029001340236002AA6B46084800F0D4FC47
:10094400012223689343236001F091FC280005B041
:1009540030BDC04600100240FFFFFFFE00127A00C7
:100964000120054A82B09169014391619369034072
:100974000193019B02B070470010024073B504005C
:100984000D0010002609002A02D1104800F006FDCF
:10099400002300930E4BB600F3580193013302D1A8
:1009A4000520404211E0436869461B6898470028C7
:1009B400F6D190220F212B002011D20580020B408A
:1009C400801821402A0001F053FD76BDBC2B00089D
:1009D400782A0008F8B504000D00084800F0DEFC91
:1009E40000260700AE4200D1F8BD207861683A00C5
:1009F400FFF7C4FF01360834F4E7C046BC2B0008F7
:100A04000A4B30B599681868094A9C68094DC003B7
:100A140001D4A14204D211682868091811601B6826
:100A24002B681068C018001B30BDC04610E000E001
:100A3400980000209400002070B5FFF7E1FF0C4BF4
:100A44000C4A186811680C4C40181060962100225A
:100A540025681A604901401BFFF73EFB96235B01A2
:100A640043435B19236001F037F900F0E1F970BDED
:100A740098000020900000208C0000200020094AEB
:100A8400136A1B021B0A1362074A084B1A60084BBD
:100A94001860084B5A600722986019680A431A6064
:100AA4007047C04600ED00E0BF1200009400002033
:100AB4009800002010E000E0F7B50400294F2A4D0B
:100AC400002909D0431C0AD101223B6893433B60AF
:100AD400FF231B062B60F7BD431C00D1234CEFF30F
:100AE400108372B60193FFF78BFF214B1A688618A7
:100AF40000221E601F4B1A601F4B1B680093F01AE4
:100B040090420EDA8023DB002B602B68013B7B6074
:100B14000023BB60019B002BDDD162B6BFF36F8F56
:100B2400D9E7631E114A6442E4172340934200DD6F
:100B34001300962464016343104A21008018181896
:100B4400FFF7CAFA009B44439E1B80233419DB0041
:100B54009C4204D90A4B9C42D6D82C60D5E71C0091
:100B6400FBE7C04610E000E094000020A60D000062
:100B740090000020980000208C000020BF1200008C
:100B840080E8FF0010B5EFF3108472B6FFF738FF6A
:100B9400074B084A1B6812689B1A1818002C02D1CC
:100BA40062B6BFF36F8F96214901FFF795FA10BD26
:100BB400900000208C000020084A094993680968C5
:100BC40058669966802307495B05486803434B6070
:100BD40062B6BFF36F8F9368986E704794010020DC
:100BE400802B000800ED00E013498A681348104484
:100BF400EFF3098CF0C043464C4655465E466746C3
:100C0400F8C072B60E4F0F4E0A6A8A603E60506E8C
:100C140000235366002800D162B6084C1019103026
:100C2400F8C89846A146AA46B346BC462438F0C83C
:100C34008CF3098870470000940100203000000004
:100C440004ED00E00000000804207146014202D0D7
:100C5400EFF3098001D1EFF3088081690239097843
:100C64000229FFD001B501F00DFB01BD030605D437
:100C74001F2318401E3B8340014A13607047C0463F
:100C840000E100E070B5FF26032532000540ED00C9
:100C9400AA4089013140D243A94044B2C3B20006FC
:100CA4000AD4A308C0240A489B001B18A40018599E
:100CB40002401143195170BD0F200340083B054801
:100CC4009B089B001B18D86902401143D961F2E7C5
:100CD40000E100E000ED00E08A180721203A10B599
:100CE4008A431360029B01245360039B064993606B
:100CF400049BA143D36080235B04D36100239161EF
:100D04000265436610BDC0462F21000889180722DA
:100D14009143064A9060181C81F30988002162B649
:100D2400BFF36F8F0022002301F0FFF9940100202C
:100D3400014910220A60704710ED00E0BFF34F8FA5
:100D440030BF62B6BFF36F8F7047C04630BFFDE758
:100D540001B5EFF305800549401AC0000449014478
:100D640009C9984709BC9E4602490847100000007B
:100D740018290008350E000872B6074807494018BC
:100D840080F30988EFF314800221084380F3148868
:100D9400BFF36F8F01F082FA2005002000020000EB
:100DA400EFF30880EFF30981724601B500F002F811
:100DB40001BDC04630B51B4B89B05B68DB05DB0D5C
:100DC40062B6BFF36F8F140EFF2C24D1F33C144092
:100DD400082C20D00025120701D40100012500248D
:100DE400032B06D18B69023B1A880F4B9A4200D120
:100DF4000C682022684601F068FA079B002D0DD08C
:100E0400DA0502D1094A134307936946200001F029
:100E140035FA09B030BD00252900E0E75B0A5B0222
:100E2400F2E7C04600ED00E002DF0000FF01000031
:100E3400044B9968186A884202D00349034A0A603D
:100E4400704700009401002004ED00E00000001051
:100E5400F0B5C02400220326FF25A40010002F00B3
:100E64003040C0008740054993089B005B1819591E
:100E74000132B94319511D2AF0D1F0BD00E100E05F
:100E840070B50400EFF3108572B600F0FBFC0A4B5A
:100E94009B68A3420BD1094B5A68D20502D12800A2
:100EA400FFF78AFE8022596852050A435A602800D7
:100EB40001F082FC70BDC0469401002000ED00E00A
:100EC400014B18607047C0465807002010B503480E
:100ED4000221FFF77FFD002010BDC046A42A0008B0
:100EE400036810B59C68064800F058FA210043686E
:100EF4000C311B689847002801D00520404210BDE2
:100F0400BC2B0008F7B5019303680C009F6880238D
:100F140086689B019A4221D103238A100B40023236
:100F24002E49920052580F219B0099400A40DA4002
:100F34001300BA6800259A420ED12000FFF726FC60
:100F44002000FFF767FC29002000FFF72BFC01239A
:100F5400A34072689A4372602800FEBD8023DB01BF
:100F64009A4236D002001E492000FFF745FC051EB8
:100F740032D10123A3407268BF6813437360220017
:100F84000326324092000F20974090403A001349C4
:100F9400A3109B005B18996881430A439A608023DD
:100FA400019A0121DB029A420CD0C0233100DB02FA
:100FB4009A4207D013000B4A9446634419004B42EB
:100FC400594149002000FFF7EDFB2000FFF7CCFB5F
:100FD400C2E723256D42BFE71025FBE7000001406F
:100FE400772300080000FEFF012103689B681B684B
:100FF4009A688A439A601A6801490A401A607047DD
:10100400FFFEFFFFF0B503680A799B680D00866850
:101014001C6885B0012A00D16EE0931E59424B41F1
:101024009B0269794F1E0091791E8F417F030297BD
:10103400AF790197043F7942794109030391E97932
:1010440000278C46012901D1C027BF00033A012A99
:1010540055D902220099914351D0019A022A4ED9BE
:101064006246002A05D0274A944248D16246012AA2
:1010740045D1012122688A43C02122602268C90027
:101084000A40934204D022681F490A401343236054
:10109400C022636892011340029A9A4205D06368A1
:1010A4001A4A1340029A1343636080222368520150
:1010B4001340039A9A4205D02368154A1340039AB1
:1010C40013432360C022A368920013409F4204D0BC
:1010D400A368104A13401F43A760296833689942E4
:1010E40003D001F051FA2B683360012300202268F9
:1010F4001343236005B0F0BDC023DB0091E7232038
:101104004042F7E700380140FFF9FFFFFFCFFFFF40
:10111400FFEFFFFFFFFCFFFF836810B51B6880240F
:101124000B600368C0209B68C0001A68E400136861
:1011340003400220A34204D00E481B1858424341E6
:10114400D8B20871C020546880010123044200D041
:1011540002334B7113680020DB04DB0F03338B7104
:101164009368C02292001340034A9B185A42534189
:10117400CB7110BD00FAFFFF00FDFFFF0368F7B558
:101184009F68050086683C68204800F007F939002C
:10119400436870601B680C3198470190002831D176
:1011A400012223689343236023680B321343236093
:1011B4002368174A134023606368164A1340636028
:1011C4003B7D002B07D0C0212B6889009B681A68DF
:1011D40093680B4393602800316801F0D5F901232B
:1011E40022681343236080239B03E2691A42FCD0E4
:1011F4008023DB03E2691A42FCD02800BB689847CD
:101204000198FEBD05235B420193F9E7BC2B00085E
:10121400FFE9FFFFFFCFFFFF074B10B5834280417B
:101224000124064940420A68A24302430A600B684B
:101234002340584010BDC04600366E0100200240D5
:10124400F7B5254C254A6368254F1B061B0FD35C55
:101254003A6805009A400E00019282422DD3802301
:1012640022685B041343236080239B0422681A4290
:10127400FCD0F02263689343326813430322636013
:10128400636893431A00022313430C226360636868
:101294001340082BFBD16368124A1340726813434E
:1012A4006360019BAB420DD833680C4A1B061B0FCD
:1012B400D35C0020DD403D6003E0FFF7ADFF002874
:1012C400CDD0FEBD0120002DFBD02800FFF7A4FFE8
:1012D4000028F6D1E8E7C04600100240D52B0008EC
:1012E4006C070020FFF8FFFFF8B51E4C0E002168C4
:1012F4001D00012389012FD42368516812689B03C0
:1013040010D4012E2AD180232668DB0233432360C4
:10131400802326685B023343236080239B02266874
:101324001E42FCD06368104E0F00334080261343E6
:10133400760233430F266360E36A3740B3433B438B
:10134400E3620131940CFEF7C7FE344002342900F5
:101354006043FFF775FF03001800F8BD2368034ED0
:101364003340D4E700100240FFFFC2FFFFFFFBFF42
:1013740070B5094E83009D59013084003359AB4246
:1013840000D870BD2B6828005B689847002801D0FE
:1013940000236B600C35F1E76C2B000870B5114C21
:1013A40005002300104EB44204D11C00B4420AD1FB
:1013B400002414E06268002A03D022681268AA425A
:1013C4000DD00C34EFE76368002B01D10C34EDE74A
:1013D40023682800196800F06DFF0028F6D120006A
:1013E40070BDC04678070020F007002010B5034800
:1013F400034A0021121A00F097FF10BD00000020DC
:10140400D401002010B50648064A0749121A00F014
:101414005CFF064A0649074800F057FF10BDC04666
:101424002007002004080020382C000800000000D9
:10143400382C00080000002010B501240A4B0220BB
:101444001C70FFF795FF094A09490A4800F062FE3B
:101454000320FFF78DFF00F04FFBFFF725F8064A46
:10146400137BA343137310BDD00100202C2C000860
:10147400E52B0008062C0008280100208022F0B586
:10148400304B9200A5B09B18079383F308882E492C
:101494002E4A0B6A01271A40C0231B0413430B6214
:1014A40000F007FFFFF744FC00216C2209A800F0BC
:1014B4003BFF292202AB264C9B181F7009ABA3608B
:1014C4000020FFF755FF38000026FFF751FF00F01A
:1014D40073FAA0221F4D204B256220492800059352
:1014E40092001F4B0497039602960196009600F013
:1014F400DBFA04226B7B280093436B7301F078F9C9
:10150400184BC82205930F231749184803930497CF
:10151400174B02960196009600F0C6FA0422134B6C
:1015240028005B7B0D499343104A26755373E26090
:10153400A022079B920063600E4BA361E361084BFA
:10154400FFF7E4FB2005002000ED00E0FFFF00FFB3
:1015540094010020280100202D2C0008D80100202F
:101564003D140008322C000858040020BC00002060
:10157400DD280008AC01002010B5074C2368002BBF
:1015840009D0FFF7FFFA03002068044AC3180021BA
:10159400136101F087F910BDC801002094010020F7
:1015A40010B50300EFF3108472B60020074A1061EF
:1015B4000A305843064B1860064B1960FFF7DCFFEE
:1015C400002C02D162B6BFF36F8F10BD94010020CE
:1015D400C8010020C4010020EFF3108172B6054B4E
:1015E4009A68D37B013BD373002902D162B6BFF35F
:1015F4006F8F704794010020094B1A0024328242F5
:1016040005D19B688B4202D14B7BDB0606D10B686C
:101614004A6813605A6000230B604B607047C046F1
:101624009401002070B5124D06002800243001F00A
:10163400D8F8AB680400597B8A0602D508220A430D
:101644005A73002C00D1EC68002E0AD15A7BD206C2
:1016540007D1A269002A04D1DA897F2A01D92B6231
:1016640070BDA34201D0FFF787FF2C62F8E7C046A4
:101674009401002010B5EFF3108472B6074B0020DC
:101684009A68D37B0133D373FFF7CCFF002C02D1CC
:1016940062B6BFF36F8F01F09DF810BD9401002076
:1016A40070B5437BDB0623D18369002B20D1154A17
:1016B4001400516A2434A14200D00B00916A002B1B
:1016C40017D00E250E2445571C57A54203DB8B4229
:1016D4000FD01B68F3E75A680360426010605860DB
:1016E4008023427B5B42134343730020FFF79AFF3E
:1016F40070BD1300416024330360936A18609062E4
:10170400EEE7C0469401002010B5EFF3108472B6E2
:101714000422437B134205D1002C02D162B6BFF3ED
:101724006F8F10BD93434373FFF7BAFF2100024844
:1017340001F034F8F5E7C046D101002070B504008B
:10174400EFF3108672B6437B1C4D7F2B04D928001F
:1017540021002430FFF750FF2A006B6A24329342A1
:1017640000D10023AA6A002B1FD00E200E21205680
:101774005956884203DB9A4217D01B68F3E75A682C
:101784002360626014605C608023627BA8685B42B3
:101794001343001B637344426041FFF743FF002E71
:1017A40002D162B6BFF36F8F70BD2B006260243329
:1017B4002360AB6A1C60AC62E6E7C046940100207B
:1017C400154B164A010010B598681468A04202D15E
:1017D400FFF7D2FE10BD00241460114A1268A24221
:1017E40017D0C2897F2A14D80E240E4A04571268CF
:1017F40094420EDB0C4A90420BD08269002A08D135
:101804001A698A4202DCFFF799FFE1E7521A1A616A
:10181400E0E70022FBE7C04694010020C00100205D
:10182400C8010020C4010020BC00002070B50400E1
:10183400183001F018F8EFF3108672B6637B104D80
:101844007F2B08D9280021002430FFF7D5FE7F2202
:10185400637B134063731023627B13436373AB682E
:10186400181B43425841FFF7DDFE002E02D162B639
:10187400BFF36F8FAB68A34201D100F0ABFF70BD23
:1018840094010020F8B5836D0400002B00D0984724
:101894002000183000F0E7FFEFF3108672B6637B88
:1018A400DA0627D1A269002A24D15BB21F4D002B8E
:1018B40008DA280021002430FFF79EFE7F22637B94
:1018C40013406373A868001B43425841FFF7AAFE04
:1018D40008230227627B134363732300A56A28331A
:1018E4009D4201D0002D12D1002E02D162B6BFF369
:1018F4006F8FF8BD02252B42EAD02100A068FFF7C4
:101904007BFE637BAB4363730023A360E0E7A868BB
:101914002900FFF771FE6B7B2800BB436B73002328
:10192400AB60AB66FFF7BCFED7E7C046940100206E
:1019340070B5437B0400094D7F2B08D92800210092
:101944002430FFF759FE7F22637B13406373A8683A
:10195400001B44426041FFF765FE70BD9401002006
:10196400F8B5050000F0B4FF2C18EFF3108672B63A
:101974000E4F0F4BBA6810001A6000F068FFB86889
:101984002A00EB170B49183000F03AF91023BA6813
:101994003000517B0B435373FFF70EF900F098FFAF
:1019A400201AC343DB171840F8BDC0469401002039
:1019B400C00100200D280008054B00211A0010B5B5
:1019C400243208005A629A62FFF7EAFD10BDC0464D
:1019D4009401002070B5204C204BA2689A422CD070
:1019E400EFF3108572B6260024363000A168FFF7A5
:1019F40003FE636AA268B34200D10023A16A002BEC
:101A040021D00E260E2096571856864203DB8B42B1
:101A140019D01B68F3E75968136051600A605A6073
:101A24008023517B5B420B4301205373FFF7FAFD84
:101A3400002D02D162B6BFF36F8FEFF3108072B640
:101A4400FFF7BAF870BD2300516024331360A36A12
:101A54001A60A262E4E7C04694010020BC000020A2
:101A640010B50B000C00421C07D1013305D10A4B01
:101A74009868FFF7DBFE200010BD041E08D1FFF7B5
:101A8400A9FF0A2200232000E117FEF7DBFBF3E79E
:101A9400FFF766FF0400F4E794010020014B986807
:101AA4007047C0469401002070B504002500283515
:101AB400A562E56204256573002586B00D980E9E27
:101AC400A07303900C98267302900B98E573019011
:101AD4000A98A5610090E56120000496FFF7FCF8E0
:101AE400044B65659B68A565AB4200D01B6E2366FD
:101AF40006B070BD9401002070B51D4C86B0260060
:101B04001C4DAC4209D33400FFF766FD0A26AC42F3
:101B140019D3FFF7AFFD06B070BDE36A0593236ADE
:101B24000493E3690393A3690293636901932369AB
:101B34000093E368A26861682068FFF7B5FF236833
:101B44005C653034DCE7626A531C08D0D343DB178E
:101B54001A4072432068002A03D1FFF7D5FD3034C0
:101B6400D5E700230449183000F04AF8F7E7C046E7
:101B7400F0070020F00700200D2800080020044B87
:101B840010B51B68834201D1FEF7FCFF10BDC046AF
:101B9400CC0100200368002809D0084A526890420A
:101BA40005D0002B03D09A68816852189A60426865
:101BB40013605A600023036043607047700700207D
:101BC4000C4B10B51C689C4200D10024FFF7D6FFD3
:101BD400002C0CD0A368181AC343DB171840064B1B
:101BE4001B69002B02D0984200DD180010BD034889
:101BF400F5E7C0467007002094010020FFFFFF7F37
:101C0400F8B504000D0016001F00531C01D17B1C05
:101C140056D001220023B6185F4102225242D31744
:101C2400921BBB41002B14DBFFF7A8FF8446022064
:101C34004042C117264B1A685B68801A994102001A
:101C44000B00921BBB41160062461F00D317B61A45
:101C54009F41E560EFF3108572B6FFF78FFF330005
:101C6400002F03DC01D1002E00D10123194AC01832
:101C74001368A060934202D05668002B06D15368C3
:101C84002260636053681C6054600AE09868A1682D
:101C9400884216DD411A99605968236061600C60BE
:101CA4005C601368934206D09C4204D1FFF788FF1E
:101CB4000021FEF701FF002D02D162B6BFF36F8F42
:101CC400F8BD091AA1609E42D9D01B68D5E7C04669
:101CD4000000002070070020F0B585B00400FFF775
:101CE4006FFDEFF3108572B6264B01951C602649F3
:101CF4002648244A0C6884460568466813688C4262
:101D040006D0002C04D0A7689F4219DDFF1AA760F3
:101D140018003400D9172B00C01861416346002411
:101D2400186059601460FFF74BFF2100FEF7C4FEF2
:101D3400019BA34202D162B6BFF36F8F05B0F0BD21
:101D4400F9170391280031000297DB1B029D039EC3
:101D540013604019714100236546A36028606960DF
:101D64002000FFF717FF019B002B02D162B6BFF3DF
:101D74006F8F2000E3689847EFF3108572B60195E2
:101D8400B5E7C046CC010020700700200000002009
:101D940010B5EFF3108472B6FEF7F4FE00230200D0
:101DA400054908684968801859419C4202D162B6C5
:101DB400BFF36F8F10BDC0460000002010B5064C65
:101DC400064B9C4201D3002010BD2000A26861682C
:101DD40000F092FD1434F3E7F0070020F007002030
:101DE400012310B51C008C402100846824680C4237
:101DF40000D05A40002A03D04368DB68984710BDDE
:101E040043681B69FAE770B50C008568D022436803
:101E140052011B689847002804D10123A3402A6873
:101E24009A432A6070BD0020704770B50D0004000D
:101E34004520A04729005220A04729005220A0474E
:101E440070BDF0B51C0000238FB00493013B0593D3
:101E5400002307000D00079206930393079B1B784A
:101E6400002B01D10FB0F0BD039A002A09D1252B14
:101E740000D13EE129001800B847079B01330793BE
:101E8400ECE77A2B0AD8622B0FD8302B37D02AD81C
:101E9400252B00D12AE12D2B00D133E12900252067
:101EA400B847079B290018781EE1180063381728E3
:101EB400F4D8FEF707F917014E00F3FFF3FFF3FF21
:101EC4003C004E00F3FFF3FF3C00F3FFF3FFF3FF8E
:101ED4009400F3FFF3FFFE00F3FF7D00F3FFF3FF35
:101EE4001C00F3FF3C00392B18D9582BD6D1079B83
:101EF4001B78702B7ED108CC089300238AE0059AC6
:101F0400002A0EDA069A002A00D1FDE0303B059340
:101F1400069B002BB1D102330693AEE7059A002A43
:101F2400F4DB0A2205994A43303A9B18EFE7682B01
:101F340004D1049A682A07D1482308E06C2B03D102
:101F4400049A6C2A00D1E1E0049A002AA6D10493F1
:101F540093E7049B7A2B12D140CC002E06DA290099
:101F64002D20B847059B7642013B05933200059B23
:101F74000093069B29003800FEF7DEFA15E0049B67
:101F84006C2BE9D0049B4C2BE6D180200021453BEF
:101F940007349C4300060CCC8018594116000029D4
:101FA400DBD029003800FFF740FF0023039364E7E8
:101FB400049B7A2B01D104CC0DE0049B6C2BFAD04A
:101FC400049B4C2BF7D10722E31D93431C000CCB3D
:101FD4000834002BE5D1059B0093069BCAE7290032
:101FE4003020B84729007820B84708230593073BD9
:101FF40006937CE7049B6C2B00D17CE7049B4C2B61
:1020040000D078E70722E31D93431C001A685B683D
:1020140008340892099310230A93002340260B9353
:102024000C93043E320008980999FEF7E1F80F2357
:102034000F22034010421ED10C9A3020002A01D1F5
:10204400002E1DD1C018290040B2B8470B9B0133A4
:102054000B93002E2AD1069B0396032B00D00CE78A
:10206400059B5E000B9BF61A002E9EDD29002020A6
:10207400B847013EF8E75720092BE3D82738E1E7B2
:102084000A9B0A9A013B0D93059B934205DB069B31
:10209400012B05D129003020B8470D9B0A93C0E7D6
:1020A400069B022BF9D129002020F5E7039B0C9312
:1020B400B7E708CC1E000393307800280ED1069BA6
:1020C400032B25D1039BF61A059B9E1B002E00DCD7
:1020D4006BE729002020B847013EF7E729000136C5
:1020E400B847E9E7290001CCB8475EE729001800A2
:1020F400FAE7039B049301235B420593049B069335
:10210400012353E7032307E7012305E74C231EE7D5
:102114000390B2E60FB407B504A901C90191FEF713
:102124006DFA03B008BC04B0184710B504000800E9
:1021340011001A00A047FFF7B1FCFEF7A1FE0368E7
:10214400C9005918802380681B02984202D3920068
:10215400505870475200505AFBE710B50468C90044
:102164006118802480682402A04202D39200535054
:1021740010BD52005352FBE7F8B5040000220D00D5
:10218400FFF7DDFFE3681840FEF73EF880220023E6
:10219400A168120291425B411A001F239B1A181A6C
:1021A4006268C300D3185A68511C5960002A12D1BE
:1021B4000A008240616920000A4362612900022208
:1021C4001D602B00FFF7C9FF2B000322290020000C
:1021D400FFF7C3FFF8BD1F68022239002000FFF794
:1021E400AEFF06000300022229002000FFF7B5FF1E
:1021F4003B00032229002000FFF7AFFF2B0003223E
:1022040031002000FFF7A9FF2B0002223900DEE78E
:102214007047704710B5020002210020FEF788FACB
:1022240010BD10B5020004210220FEF781FA10BD92
:1022340010B5020010210420FEF77AFA10BD002226
:1022440010B511000520FEF71DFD00220620110027
:10225400FEF718FD002207201100FEF713FD0020F1
:1022640010BD80235B030360002343607047704705
:1022740010B50021012000F001F810BD10B500F0E8
:1022840077FA10BD10B50100006800F071FA10BDB6
:1022940010B5FEF75BFDFEF7CBFD10BD10B5FFF7E3
:1022A400B8FFFFF7A3F8FFF7ADF8FEF7D1FDFFF78E
:1022B400E5F87047002210B5835C8C5CA34202D120
:1022C4000132002BF8D1181B10BDF7B505004D40A5
:1022D40003242B00A4462340254209D004000023F4
:1022E4009A421DD1FEBD9A42FCD0CC5CC454013349
:1022F40067466546CC180194C418D61A27402C4268
:10230400F1D1F31B032B06D8019BB1088900721A83
:1023140064185918E3E7019BDB59E3510437F0E7EC
:10232400CD5CE5540133DBE7F0B503000325CCB203
:102334002B4210D1C9B20D0229430D0429431D00BB
:10234400D7187E1B032E0CD89108890059189B18A6
:10235400994208D1F0BD002AFCD01C70013A013327
:10236400E6E702C5EDE70C700131F1E701204042D8
:1023740070478A6870B553680124C3400E00234235
:1023840011D0916800290ED084400D688B681A0022
:102394002240234202D030004B689847002D02D0DF
:1023A40029002D68F2E770BD03689B6800205B6814
:1023B4001B690B60704703689B685B6858694240FF
:1023C4001140414059610020704703689B68002018
:1023D4005B689961704703689B6800205B68996239
:1023E400704703689B6800205A6853694B405361E7
:1023F4007047836830B598680024002804D1002A07
:102404001BD1002030BD2800814210D10868002C67
:1024140007D1DC689860A14200D1D8600020086030
:10242400EDE72060D8688142F8D1DC60F6E7056802
:102434000400002DE7D1002A07D09A680A60D86802
:1024440099600028DDD1D960DCE716204042D9E745
:1024540001238B408268516800200B43536070470E
:1024640001238B4082685168002099435160704772
:10247400F0B501258D402C0003278C40674385B0BF
:102484000193036830260293FB4316409C463309AC
:1024940063430393029BBB431F00039B3B430360C3
:1024A400202E0CD1072924DC23008B400F278B40DE
:1024B4005F43066ABE43019F5F433E430662530681
:1024C400DB0F8B4003214668AE43334366464360CB
:1024D400D3090B4063438568520A35402B430A40B5
:1024E40083605443C36833401C43C460002005B078
:1024F400F0BD0F272B0A5B435B435F43466ABE4331
:10250400019F5F433E434662D9E7036870B59E6806
:1025140080239B000D0019001A4218D0930705D59B
:102524005024530703D42320404222E01024D3062E
:1025340007D50C4313051DD50121A940FFF745FF1D
:1025440010E09306F6D58023DB001C43F2E7302429
:10255400D10507D51C00D30604D4202314001C4045
:102564001A420ED10023220029007068FFF780FF71
:10257400002070BD5305F5D50121A940FFF72BFFBD
:10258400F0E78024E400EDE7036837B50C009968B0
:1025940083680D6858680C31436801AADB68984762
:1025A400002807DB019B60082100C018FDF794FD9B
:1025B40080B2E86037BD0121036810B59B68022230
:1025C4001B68D869DC69C00808400C4200D010437D
:1025D400D969114201D004221043C20701D508224F
:1025E4001A62820701D501221A620422104201D024
:1025F400022119621A6210BD03689B681A6840239D
:1026040011680B4313607047402103689B681A6884
:1026140013688B431360704703689B681B68D86911
:102624000006C00F704703689B681A68202311686E
:102634000B4313607047202103689B681A68136872
:102644008B4313607047012203689B681B68996879
:102654000A439A608022196852000A431A6070473C
:10266400202203689B681B68D969114203D019684A
:102674000120114206D1DA690020520602D51868F9
:102684004006C00F70470120704783689960DA6084
:102694007047826810B59368002B01D0D0689847C2
:1026A40010BD002210B511001B20FEF7EBFA1B2011
:1026B400FEF7DCFA10BD802203689B681B68D869AA
:1026C4001042FCD0402289B21A621985704703680F
:1026D40030B5002080259B681B68141A002C07DD88
:1026E400DC692C4204D0441C085C1885E0B2F4E791
:1026F40030BDF0B503682026002008259B681B68C0
:10270400141A002C0CDDDC69344209D09F8C441C63
:102714000F54D869E4B2284200D01D622000EFE7CC
:10272400F0BD03689B681B68D8694006C00F7047FA
:1027340003689B681B68D8698006C00F704708222D
:1027440003689B681B68D869104200D01A62DA6972
:10275400920603D500209B8C0B70704701204042E9
:10276400FBE7EFF3108372B6FEE710B5FFF7F9FF4E
:10277400F8B505000E00EFF3108772B6FFF78EF977
:10278400310004002800FFF7F0FF002F02D162B6E9
:10279400BFF36F8F2000FEF773FBF8BD10B500295F
:1027A40005D1EFF30580002802D1FEF705FA10BD2C
:1027B40062B6BFF36F8FFAE710B5002805D1EFF3C7
:1027C4000580002802D1FEF7F7F910BD62B6BFF309
:1027D4006F8FFAE710B5EFF3108072B6FFF7ECFFD6
:1027E40010BD026803000020934200D0100070471F
:1027F40010B5EFF3108472B6FEF752FF002C02D12D
:1028040062B6BFF36F8F10BD70B504000500183CAD
:10281400A3680B3D002B12D0EFF3108672B610386C
:1028240021000068FEF7E8FE02222B7893432B7008
:102834000023A3609E4202D162B6BFF36F8F1422BD
:102844002B78200093432B70FFF7D2FF70BD10B597
:10285400EFF3108472B6FFF76BF8002C02D162B666
:10286400BFF36F8F10BD10B5EFF3108472B6036819
:10287400002B08D0FFF78EF90020002C02D162B69D
:10288400BFF36F8F10BD16204042F6E710B5EFF38B
:10289400108472B6FFF794F9002C02D162B6BFF32C
:1028A4006F8F10BD70B504000D00EFF3108672B683
:1028B400FFF786F9012805DDA04203DD2900200089
:1028C400FEF7FAF8002E02D162B6BFF36F8F70BD27
:1028D40010B5FFF75DFA10BD10B50124EFF31083B6
:1028E40072B6FFF7D3FF022800DC20002100FFF7B7
:1028F400D9FFFEF723FAF1E7030010B50C33C360E8
:0A2904000361FDF787FE10BD704768
:02290E00FFFFC9
:0829100078D9FF7F01000000EF
:102918000000000075220008000000007522000871
:102928000000000075220008000000007522000861
:102938000000000075220008A807002019220008DE
:10294800A807002027220008A80700203522000831
:102958000000000075220008000000007522000831
:102968000000000075220008000000007522000821
:102978000000000075220008000000007522000811
:102988000000000075220008000000007522000801
:1029980000000000752200080000000075220008F1
:1029A80000000000752200080000000075220008E1
:1029B80000000000752200080000000075220008D1
:1029C80000000000752200080000000075220008C1
:1029D80000000000752200080000000075220008B1
:1029E8000000000075220008B407002097260008A0
:0829F800000000007522000838
:102A00002C2C0008BD060008000000002C2C00083B
:102A1000E106000800000000A12B00084322000886
:102A200000000000BC2B0008E908000800000000BE
:102A3000C52B0008810A0008000000002C2C0008AB
:102A4000D10E000800000000CF2B0008E50E0008A2
:102A5000C82A0008842B0008E50E0008B42A0008E4
:102A60009A2B000881110008082B00082C2C000864
:082A7000C11D00080000000078
:102A78000000020000000400000008000000100030
:102A8800FFFFFFFF00004000FFFFFFFFFFFFFFFF0A
:102A9800FFFFFFFFFFFFFFFFFFFFFFFF0900000031
:102AA800210200000A00000021000000FFFF0000D2
:102AB80000000048000000000000000000000200C4
:102AC800FFFF0000000400480100000000000000B3
:102AD800000004000F250008AD230008BB230008F0
:102AE800CF230008DB230008E7230008090F0008AC
:102AF800F72300085524000865240008000000009A
:102B08000038014000000000A7260008040000006B
:102B1800004000000000000043270008BB26000812
:102B2800BB250008091000081D110008D32600085D
:102B3800F7260008FD2500080D2600081D260008B8
:102B48002B2600083B260008272700083527000801
:102B58004B260008ED0F0008652600088B260008A4
:102B68008F26000878070020CC070020D80700200F
:102B7800F0070020F0070020F5FFFFFF4750494FFE
:102B8800410068656C6C6F00257520202025752034
:102B98000D00554152545F310073746D33322D6509
:102BA800787469000505060607070707070707077A
:102BB8000707070773746D33322D636300737973E6
:102BC8005F636C6F636B004750494F420000000021
:102BD800000000000001020304060708097A657076
:102BE8006879722D76322E322E302D323230382DD1
:102BF80067306432663331663265653939002A2AAE
:102C08002A20426F6F74696E67205A6570687972FE
:102C1800204F53206275696C64202573202573202A
:102C28002A2A2A0A006D61696E0069646C650000D1
:102C38000500000001000000090000000800000075
:102C48000A00000002000000060000000400000066
:102C58002B1E00082D080008890800080000000045
:102C6800C9080008000000007123000800C2010024
:102C780000000000000000000000000000127A00C0
:082C8800700700207007002016
:102C9000002A00080000000000000000242A0008AC
:102CA00044070020000000003C2A0008000000004B
:102CB000000000006C2A0008000000000000000076
:102CC000182A0008000000000C000020602A0008FC
:102CD000202B00085C0700200C2A000800000000E0
:102CE00000000000302A0008000000000000000082
:102CF000482A0008DC2A0008AC000020542A0008FA
:082D0000DC2A00089C00002001
:102D0800F0070020F007002000000000000000008D
:042D18000F000000A8
:0400000508000D7D65
:00000001FF
